:101E0300E0FFC394047480948022EBF0A3EAF0A370
:101E1300E9F022E0FBA3E0FAA3E0228FC4EEF5C3CE
:071E230075C65A75C6A52221
:0D000E00E4F5C7F5C5F5C675C380F5C4223D
:101F380075C78175C501121E1E0000000000000053
:061F480000AFC202000E12
:101E2A00C2AF75C78175C5028FC4EEF5C3AF058F02
:101E3A00C2121E2300000000000000000000000083
:061E4A0012000ED2AF22CF
:101EEF0075C78175C503121E1E000000000000009B
:091EFF0000000000000002000ECA
:0C1BCA009000ACEEF0A3EFF0A3121E0D93
:101BD600E4A3F09000B1121E03502D9000ADE02F4B
:101BE600FF9000ACE03400FE9000AE121E16F9A382
:101BF600E0F582758300120F5AFD121E2A000000BE
:081C06009000B1E004F080CB76
:011C0E0022B3
:101F2100AC07ECD39D500FEC7F0025E0FE121EEFB5
:061F31000000000C80EC32
:011F37002287
:0A1CCC009000AD121E0DAD07AC062E
:101CD600E4A3F09000B0121E035026EF2DFFE43C63
:101CE600FE121F389000AD121E16F9A3E0F582759C
:101CF6008300EF120F990000009000B0E004F0801E
:011D0600D20A
:011D070022B9
:061DAB009000AC121E0DB9
:101DB100E4FDED121E05501FED7F0025E0FE121F10
:101DC100389000AC121E16F98D82758300EF120F48
:071DD100990000000D80DB0A
:011DD80022E8
:0618BE009000AC121E0DAB
:1018C400E4A3F09000AFE0121E055055E4A3F0909D
:1018D40000B0E0FD121E0550409000AFE025E0FE90
:1018E4007C00E42DFFEC3EFE121F38AD07E075F0DE
:1018F40005A4FF9000AC121E162FF9EA35F0FA90F9
:1019040000B0E07E0029F9EE3AFAED120F870000EC
:10191400009000B0E004F080B69000AFE004F080E6
:01192400A220
:01192500229F
:0800030012185512060E80FBD5
:10192600ECC3940874809480228EF0A49000ACFFDF
:10193600E02FFFA3E0FD2275F010EBA42CF582E466
:1019460035F0F583E58222EFF0A3EDF0EBA3F0A3EB
:10195600EAF0A322540F2430F0D394397480948093
:1019660022F583E493FF7D01121D4A0C227F8D121E
:101976001D4A7F14021D4AE0FB1219E89000B3E0ED
:01198600223E
:091FC700007F0B7EBEDEFEDFFC94
:011FD00022EE
:041F0800AD07AC066F
:101F0C00E4FBFAC3EB9DEA9C500A121FC70BBB0003
:041F1C00010A80EF47
:011F2000229E
:0A1D4000121D4A7F02121D4A7F1097
:101D4A00ED6004D2A68002C2A6C2A5E4FEEE121974
:101D5A00275015C2C5EF30E704D2C48002C2C4D2EC
:0C1D6A00C5EF25E0FF0E80E5D2A5D2A653
:011D7600224A
:101E7600AC07ED24B0FFE4FD121D4AEC240254F039
:101E8600C4540F4410FF121D4AEC2402540FFF02E3
:021E96001D4AE3
:0A1FD100E4FD1219737FAF021D4AF0
:0C1FBB00E4FD7F8D121D457FAE021D4A23
:101DD900E4FC1219265022EC24B0FFE4FD121D4048
:101DE900E4FBEBC3948074809480500A7D01E4FF86
:091DF900121D4A0B80EC0C80D98C
:011E020022BD
:0619E800AA07A905AF03E8
:1019EE00E4FCEF24E0FBEAD3947F748094804004FF
:1019FE00E4FA0909AF02AD01121E76E4FC121926B3
:101A0E00501012193D241EF582E583340012196719
:101A1E0080EBAF02E904FD121E76E4FC121926508B
:101A2E001012193D2426F582E583340012196780C1
:011A3E00EBBC
:011A3F002284
:071E98009000B5EFF0A90571
:101E9F007F017E00AD0119ED600C9000B5E0FD7C77
:061EAF0000120FBB80EEE3
:011EB500220A
:0B14C3009000ACEFF0ED121953EBF0BD
:1014CE00E49000B4F09000B2F09000B0E0FF900015
:1014DE00B2E0FEC39F5072C3EF9E14FD7F0A121E30
:1014EE00989000AEE0FCA3E0FDCFCDCFCECCCE12D7
:1014FE000FCD7C007D0A120FCD9000B3EDF0A3E06E
:10150E0070269000B0E014FF9000B2E0FEC39F5032
:10151E0017A3E0700D9000B1E0C31312192F7B20BA
:10152E00801B9000B47401F09000B1E0C313FFA3D0
:10153E00E0FEEF12192F9000B3E02430FB1219E8F1
:09154E009000B2E004F00214D791
:011557002271
:081AE6009000AE12194DE9F069
:101AEE00E4A3F09000B0E0FBA3E0FAA3E0F9A3E0DA
:101AFE00F582758300120F5AFB602B9000AEE0FF4B
:101B0E00A3E0FD1219E89000AEE02408F0E0D394B3
:101B1E0078748094804007E4F0A3E02402F09000F3
:061B2E00B3E004F080BDED
:011B3400228E
:081768009000AC12194DE9F0EC
:10177000E49000B3F09000B3E0FFC394047480944D
:1017800080505B9000AEE0FBA3E0FAA3E0F98F820B
:10179000758300120F5AFF9000B112195A4004E0ED
:1017A0002407F0EFC49000B212195A4004E0240755
:1017B000F09000B3E0C454F09000AC1219359000E2
:1017C000B212197DC454F0FF9000ACE02F2408FF42
:0E17D000A3E0FD9000B112197D04F002177520
:0117DE0022E8
:1012F200D2A77F647E00121F08C2A77F647E0012FD
:101302001F08D2A7E4FD7FAE121D407F40121D4A86
:101312007F81121D4A7FCF121D4A7FA1121D4A7F73
:10132200C8121D4A7FA6121D4A7FA8121D4A7F3F7E
:10133200121D4A7FD3121D4AE4FF121D4A7FD512A5
:101342001D4A7F80121D4A7FD9121D4A7FF1121D4C
:101352004A7FDA121D4A7F12121D4A7FDB121D4A92
:101362007F40121D4A7F20121D4A7F02121D4A121F
:1013720019737FA4121D4A7FA6121D4A7FAF121D48
:0F1382004A7FAF121D4A121DD9E4FDFF021E76ED
:10001E0000000000000000000000000000000000D2
:10002E00000000F800000000000000333000000067
:10003E0000100C06100C060000000000000000006E
:10004E0040C07840C0784000043F04043F040400E0
:10005E00007088FC08300000001820FF211E0000F0
:10006E00F008F000E018000000211C031E211E0005
:10007E0000F00888700000001E212324192721108B
:10008E0010160E000000000000000000000000002E
:10009E00000000E0180402000000000718204000D5
:1000AE0000020418E00000000040201807000000C5
:1000BE00404080F0804040000202010F0102020029
:1000CE00000000F0000000000101011F010101000D
:1000DE00000000000000000080B070000000000072
:1000EE0000000000000000000001010101010101FB
:1000FE000000000000000000003030000000000092
:10010E000000000080601804006018060100000066
:10011E0000E010080810E000000F102020100F0063
:10012E00001010F8000000000020203F20200000EA
:10013E000070080808887000003028242221300042
:10014E0000300888884830000018202020110E004A
:10015E000000C02010F8000000070424243F2400F3
:10016E0000F80888880808000019212020110E00C8
:10017E0000E0108888180000000F112020110E00DA
:10018E0000380808C83808000000003F00000000D2
:10019E000070880808887000001C222121221C0093
:1001AE0000E010080810E0000000312222110F00BC
:1001BE00000000C0C0000000000000303000000051
:1001CE0000000080000000000000806000000000C1
:1001DE0000008040201008000001020408102000DA
:1001EE004040404040404000040404040404040025
:1001FE0000081020408000000020100804020100BA
:10020E00007048080808F0000000003036010000B9
:10021E00C030C828E810E0000718272423140B006C
:10022E000000C038E0000000203C230202273820E6
:10023E0008F8888888700000203F202020110E00CA
:10024E00C0300808080838000718202020100800C1
:10025E0008F808080810E000203F202020100F00AA
:10026E0008F88888E8081000203F20202320180076
:10027E0008F88888E8081000203F200003000000DE
:10028E00C03008080838000007182020221E02007F
:10029E0008F808000008F808203F210101213F203E
:1002AE00000808F8080800000020203F2020000069
:1002BE0000000808F8080800C08080807F00000059
:1002CE0008F888C028180800203F20012638200092
:1002DE0008F8080000000000203F202020203000F9
:1002EE0008F8F800F8F80800203F003F003F200013
:1002FE0008F830C00008F808203F200007183F001B
:10030E00E01008080810E0000F10202020100F0049
:10031E0008F808080808F000203F2101010100003C
:10032E00E01008080810E0000F18242438504F0081
:10033E0008F8888888887000203F2000030C302041
:10034E0000708808080838000038202121221C007F
:10035E00180808F8080818000000203F20000000C8
:10036E0008F808000008F808001F202020201F00B1
:10037E000878880000C83808000007380E01000011
:10038E00F80800F80008F800033C0700073C0300DB
:10039E00081868808068180820302C03032C302041
:1003AE000838C800C83808000000203F20000000B0
:1003BE0010080808C8380800203826212020180008
:1003CE00000000FE020202000000007F40404000DC
:1003DE00000C30C000000000000000010638C00014
:1003EE0000020202FE000000004040407F000000BC
:1003FE0000000402020204000000000000000000E1
:10040E0000000000000000008080808080808080DE
:10041E0000020204000000000000000000000000C6
:10042E0000008080808000000019242222223F20BC
:10043E0008F8008080000000003F112020110E00FF
:10044E000000008080800000000E1120202011008E
:10045E00000000808088F800000E112020103F2040
:10046E000000808080800000001F222222221300C4
:10047E00008080F0888888180020203F202000000F
:10048E000000808080808000006B949494936000C4
:10049E0008F8008080800000203F210000203F20CF
:1004AE0000809898000000000020203F20200000CF
:1004BE00000000809898000000C08080807F0000BF
:1004CE0008F8000080808000203F24022D3020009C
:1004DE00000808F8000000000020203F2020000047
:1004EE008080808080808000203F20003F20003F61
:1004FE008080008080800000203F210000203F206F
:10050E000000808080800000001F202020201F001F
:10051E00808000808000000080FFA12020110E004E
:10052E000000008080808000000E112020A0FF803F
:10053E00808080008080800020203F2120000100EC
:10054E000000808080808000003324242424190041
:10055E00008080E0808000000000001F202000004E
:10056E008080000000808000001F202020103F208F
:10057E00808080000080808000010E30080601001F
:10058E0080800080008080800F300C030C300F00C4
:10059E0000808000808080000020312E0E312000EF
:1005AE00808080000080808080818E70180601001F
:1005BE0000808080808080000021302C222130003D
:1005CE0000000000807C020200000000003F40405E
:1005DE0000000000FF00000000000000FF0000000F
:1005EE000002027C800000000040403F000000003E
:1005FE0000060101020204040000000000000000D9
:101A9600E0FE9000ADE0FBA3E0FAA3E0F92274B308
:101AA6002DF582E43400F583E022EDD394007480B2
:101AB600948022AC07AB05E4FE121C4FAE07AF04C0
:101AC600EB22EBF0A3EAF0A3E9F0229292D293EF95
:101AD60025E0FFC29322C293C294EF25E0547E22F2
:101F6400121C8E121FEC7F0A7E00121F4E121F8C51
:051F74007F41021B3556
:0916ED009000ACEFF0A3121AC842
:1016F6007D087F08121FDB7D077F0D121B887D0387
:101706007F14121FE49000ACE09000B2F09000C984
:101716007401F0A3F0A37400F0A374B2F0A37401F3
:10172600F0A37400F0A374B0F07B017A0079B27F65
:101736000C120BF9EFFD3395E04D70239000B0E0ED
:101746007004A3E0641070179000B2121A96EE129D
:101756000F879000B3121A96900001EE020F997F40
:01176600FE84
:01176700225F
:061248009000AC121AC870
:10124E00E49000B0F07D087F08121FDBE4FD7F0DF7
:10125E00121B887D807F0E121FDB9000B37493F0FB
:10126E00A37420F09000C97402F07B01A314F0A3C4
:10127E007400F0A374B3F0A3EBF0A37400F0A374A6
:10128E00B1F07A0079B37F0C120BF99000AFEFF04A
:10129E003395E04F7041FDEDC394047480948050FB
:1012AE0025121AA4FF9000AC121A9B8D8275830032
:1012BE00EF120F999000B0E0FF121AA4FEEF6E909D
:1012CE0000B0F00D80D1121AA4FF9000B0E06F6054
:1012DE00069000AF74FEF07D807F0E121FE490002A
:0312EE00AFE0FF6F
:0112F10022DA
:101C8E00D2C200C2C200D2C2007D0F7F01121B88D9
:101C9E00007D3D7F11121B887D1E7F2D121B88E457
:101CAE00FD7F2C121B887D8D7F2A121B887D3E7F27
:0E1CBE002B121B887D407F15121B887F002291
:101B3500EF644170447D087F08121FDB7D3D7F11F6
:101B4500121B887D867F17121B887D7F7F26121BBF
:101B5500887D1E7F2D121B88E4FD7F2C121B887D3E
:101B65008D7F2A121B887D3E7F2B121B887F017E6D
:0F1B750000121F4E121F8C80037FFF227F002261
:101C4F00E4FE121ADC4480FF7D08121AB04011EF37
:101C5F00548064807003D38001C3121AD11D80EAAF
:101C6F007D08121AB04011D293EE25E0FEA291E446
:0E1C7F00334EFEC2931D80EAD294D293AF067C
:011C8D002234
:041B8400E4FD7F01FC
:101B8800121ADCFF7E08EE121AB14011EF5480647D
:101B9800807003D38001C3121AD11E80E97E08EE3B
:101BA800121AB14018ED548064807003D38001C3C9
:101BB8009292D293ED25E0FDC2931E80E2D294D298
:011BC8009389
:011BC90022F9
:081FE400121AB94EFD021B8820
:091FDB00121AB9F45EFD021B8824
:0B0BF9009000C6121AC89000C5EFF073
:100C04009000D074FEF0E4A3F0A3F0EF24F460109D
:100C140024FE70169000D17412F0A37410F0800AB0
:100C24009000D17477F0A37430F09000D1E0448048
:100C3400FD7F02121B887D807F04121FDB121B8440
:100C44007D807F0A121FE4E49000D4F0A3F09000AA
:100C5400C9E0FF9000D4E0FCA3E0FDC39FEC940046
:100C640050239000C6121A9B8D828C83120F5AFD5A
:100C74007F09121B889000D5E004F070D19000D455
:100C8400E004F080C99000C5E0FD7F01121B88E0FC
:100C9400640C70077D807F0D121FE49000D47407EC
:100CA400F0A374D0F07F04121C4F9000D3EFF090A7
:100CB40000D5E024FFF09000D4E034FFF0E07002AF
:100CC400A3E060119000D3E0FF20E0099000D2E09F
:100CD400FEEF5E60D07D807F0D121FDB9000D4E0BC
:100CE4007002A3E07003020DCD7F06121C4FEF5477
:100CF4001B6003020DC79000D0F0A3E0FF9000D367
:100D0400E05F30E0069000D074FFF09000C5E0642E
:100D14000C6003020DCD7F0A121C4F9000D3EFF03C
:100D24007F0C121C4FEF5407FD6026E024FFFFE404
:100D340034FFFEEF7803C333CE33CED8F97C002DD5
:100D4400FFEC3EF99000CDE0FBA3E0FAA3E0C980FC
:100D5400119000D3E075F008A4FF9000CD121A9B07
:100D6400E5F08FF01210229000D3E0700204F090AE
:100D740000D3E0D394127480948040037412F0E49E
:100D84009000D4F0A3F09000D3E0FFC39000D5E02E
:100D94009F9000D4E0940050307F09121C4F9000C3
:100DA400CA121A9B9000D4E0FCA3E0F5828C83EF76
:100DB400120F999000D5E004F070CB9000D4E004B9
:100DC400F080C39000D074FEF07D807F0C121FE48D
:080DD400121B849000D0E0FF27
:010DDC0022F4
:101F8C007F14121C4FEF540370077D037F14121F34
:011F9C00E460
:011F9D002221
:071FEC007D037F14021FDBDF
:101F4E00EF1FAC0670011E4C600B007D0B7CBEDCDF
:051F5E00FEDDFC80EB3C
:011F6300225B
:10109B004E6F2063617264207265616421202000B1
:1010AB005361766520202020202020202020200046
:1010BB004E756D73206973206D617821202020009F
:1010CB0053617665207375636365737366756C0026
:1010DB0044656C207375636365737366756C21006F
:1010EB004E6F74206E656365737361727920002097
:1010FB0020457261736520414C4C212020005265C4
:10110B0073746F72652064656661756C74005379D6
:10111B007374656D2052756E6E696E6700446F6FE8
:10112B0072206973200052656164696E67204361A8
:10113B0072640043616E63656C20202020202020A8
:10114B0020200043617264313A0043617264323A89
:10115B000043617264333A0043617264343A005362
:10116B006572766F20646562756767696E670043A9
:10117B006C6F73653A004F70656E203A003C00202F
:01118B000063
:10118C0041009A004100000041009001602400627F
:10119C00787858587878585800787858587878581B
:1011AC005800787858587878585800787858587883
:1011BC007858580054004D8888888800888888881A
:1011CC0000888888880088888888005000034361DC
:1011DC00726449643A5858787858587878004500C1
:1011EC009112345678006034001353797374656D22
:1011FC003A352E303056004D6F746F72203A372EC0
:10120C00323056004261747431203A342E323056EA
:10121C00004261747432203A342E323056004E0043
:10122C009D636C6F73652E006F70656E2E20004190
:0B123C00009C1841008E074100880054
:100DDD00A3A3E0FEA3E0FF90000A75F00212108FAE
:100DED00EE25E02583F5837478F090000B75F00205
:100DFD00EF12108FEE25E02583F58322E024FBFF13
:100E0D00E434FFFE7C007D09120FBBAA06AB0790F0
:100E1D0000B07403F0A37410F022E0C39404748046
:100E2D00948022E0C3940575F009A4900087F02208
:100E3D009000B0E0FBA3E0FAA3E022900096A3A3FC
:100E4D00A3E05401FFE4FEFDFCFBFAF9F8C3121018
:100E5D0041900096227BFF7A1079ABE4FF22E47F6C
:100E6D0004FEFDFC900096E0F8A3E0F9A3E0FAA3E0
:100E7D00E0FBC3021041E0FD7BFF7A117988227BF4
:100E8D00017A00799122EBF0A3EAF0A3E9F0227543
:100E9D00F005A4244DF9740035F0FA7B0122900081
:100EAD0000F0900090E022E0FFD3940374809480D2
:100EBD002275F005A4244DF582E43400F58322A3B8
:100ECD00A3E0FEA3E0FF90000A75F002222489F54D
:100EDD0082E43400F583227A00799D7B017D047FC5
:100EED004022E075F009A42462F9740035F0FA226D
:100EFD00900088E024FD229000ABE0FFC3940674BF
:100F0D0080948022F98F82758300020F5A7B017ABB
:100F1D000079037D02E4FF229000AB7406F0227B82
:100F2D00017A007989227BFF7A1079AB227BFF7DD4
:040F3D0006E4FF22A5
:10185500759701121EB6121F79121F9E121FF312E1
:101865001F641212F2121C0F9000867401F0120F01
:1018750025E4900001F090008FF0120F2C121DABA3
:101885007B017A00794D1218BE120F2C121E509052
:10189500004CEFF07F007E0A121F3890009CEFF09D
:1018A500F470037418F07F017E0A121F3890008EC1
:0918B500EFF0F470037407F02257
:10060E0012166C900088EFF07003020A63E4120E6B
:10061E00AB7003120BDE120F2C121E5090004CEF1B
:10062E00F0900086E024FE70030206C014700302F0
:10063E00083B14700302090924036003020A6312C3
:10064E000EFD601B14602714605124036003020A20
:10065E00639000ABE0FF64066003020A638074904F
:10066E0000ABE0FF64046003020A630206F690002A
:10067E00ABE064066003020A63900001E004F0122E
:10068E000E274002E4F0900001E075F00DA4241353
:10069E00F9740035F0FA7B01020A0F90008674029D
:1006AE00F09000AB7404F0E4900061F0121D77023C
:1006BE000A63120EFD602514603814700302082AB6
:1006CE0024036003020A639000ABE0FF640660033C
:1006DE00020A63120BE87404F0020A639000ABE0A6
:1006EE00FF64046003020A63FD121D08120F250247
:1006FE000A639000ABE0640460030207F2900061AD
:10070E00E0640160087BFF7A10799B800F90004CAB
:10071E00E0120EB640117BFF7A1079BB120B8712D6
:10072E000F337D04020A11900061E07003020A6328
:10073E0090004C120EB44003020A63EF7F0025E0D6
:10074E00FE120E8C121BCAE490009BF090009BE0F0
:10075E00FD120E28503990004CE025E0FE7C00E49E
:10076E002DFFEC3EFE121F3890009BE0FE90004CD9
:10077E00E0120EBEE5822EF582E43583F583EFF0AE
:10078E007F017E00121F0890009BE004F080BD9058
:10079E00004CE0FF120EBEE0FE74892F120EDCEE4E
:1007AE00120B967BFF7A1079CB120B877D04120EFB
:1007BE0062121AE690009612105E00000000120EF1
:1007CE006B5051120E487008120DDD7478F0800EC9
:1007DE00120ECC120DFE7458120DF67458F0120B48
:1007EE005A0207CC90009612105E00000000120E06
:1007FE006B5021120E487010120ECC120DFE745852
:10080E00120DF67458F08006120DDD7478F0120B8E
:10081E005A0207FCE4900061F0020A6390008674AD
:10082E0003F0E49000ABF0900061020902120EFD9D
:10083E00602A1460321470030208DA14700302087E
:10084E00EE24046003020A639000ABE0FFD3940031
:10085E00748094805003020A63020935120F04401B
:10086E0003020A630209499000ABE0C313FF120EA4
:10087E00DAE0F46025EF7F0025E0FE121EEF900017
:10088E00ABE0FFC313120EDA74FF120B969000AB9F
:10089E00E0FD7BFF7A1079DB800B9000ABE0FD7BF7
:1008AE00FF7A1079EBE4FF121AE67FE87E03121F3F
:1008BE000812142B7BFF7A11798AE4FD7F77121AC6
:1008CE00E69000AB120E837F77020A1390008674B7
:1008DE0004F0121A409000AB7402F07F01020A3548
:1008EE007D03E4FF121F217A1079FAE4FD120BBF8B
:1008FE00E490004CF012142B020A63120EFD6033CA
:10090E00146049147003020A18147003020A3A2480
:10091E00046003020A639000ABE0FFD3940274807C
:10092E0094805003020A63120BE8E014F0E014F016
:10093E00020A63120F044003020A63E4FD121D084B
:10094E009000ABE004F0E004F0020A639000ABE02C
:10095E006402703890008EE014F0E0C39407748047
:10096E00948050037418F090008E120E3075F009BA
:10097E0084E5F0600990008E7407F0120E3190003D
:10098E0087E0FB7A00120E1C7D02803E9000ABE0E9
:10099E006404703E90009CE004F0E0D394187480E0
:1009AE00948040037407F090009C120E3075F0098D
:1009BE0084E5F0600990009C7418F0120E319000DE
:1009CE0087E0FB7A00120E1C7D047F301214C302E6
:1009DE000A639000ABE06406707B90009C7F00126F
:1009EE000BF190008E7F01120BF17A1079CB120F62
:1009FE003A121AE6120BA67FF47E01121F08120F8E
:100A0E00337D06E4FF121AE6804B9000867401F0E7
:100A1E00121C0F120F2590008EE090008DF07FF4C7
:100A2E007E01121F08E4FF121FAE80297F007E0A8E
:100A3E00121EEF7D187F007E0A121E2A7D077F018F
:100A4E007E0A121E2A120BA67A1179097D06E4126D
:100A5E000BBF121A40900086E024FE7003020B0AB0
:100A6E0024FE7003020B3B24036003020B59120B8E
:100A7E00CD6003020B59120E8C121248EF3395E023
:100A8E004F6003020B59120EAB7003120BDE120EE7
:100A9E008C7D027F381217689000AF7401F0A3743A
:100AAE0000F0A3744DF0120E8C1215E4EF604A7F25
:100ABE0001121FAE90009CE090008DF07A0079A498
:100ACE00120EE8121AE67F907E01121F08E49000C3
:100ADE0000F07F287E0A121F0890008EE090008D95
:100AEE00F07FDC7E05121F08E4FF121FAE120EE42B
:100AFE00121AE6E4900000F022021ED3120BCD7003
:100B0E004A120E8C121248EF3395E04F703D120EC2
:100B1E00AB7009121FD19000907401F0120E8C7DF3
:100B2E00027F381217689000617401F0229000ABBA
:100B3E00E0FF7E006402700590008E8009EF640471
:100B4E004E700890009CE090008DF0227B017A00A0
:100B5E0079037D02E4FF121AE6900096E0FCA3E012
:100B6E00FDA3E0FEA3E02401FFE43EFEE43DFDE430
:100B7E003CFC900096121052227D04E4FF121AE6FD
:100B8E007FE87E03121F0822F07B017A007989121A
:100B9E001E5090004CEFF0227F007E0A121F3890FC
:100BAE00009CEFF07F017E0A121F3890008EEFF04E
:100BBE00227BFFFF121AE67FE87E03121F08227BBC
:100BCE00017A0079477F521216EDEF3395E04F22EE
:100BDE00121FD19000907401F0227D01121D089019
:0B0BEE0000AB22E0FD7E0A121E2A224E
:101F7900538E7F438901758AA7758CFFD28CD2A9AC
:031F8900D2AF22B2
:101F9E00438910E4F58B758DB8D28ED2ABD2AF22B9
:101EB600E4F5937594E0F591F592F595F59675A090
:0D1EC600FFF5B1F5B2F5B3F5B475BB7022B0
:051FF300C286D2852228
:061391009000AD120E9366
:10139700E49000B6F09000B6E0FF120E284003027A
:1013A700142A9000AD120E40120F11FF540F243073
:1013B7009000B4F0D394394004E02407F0EFC4540C
:1013C7000F24309000B5F0D394394004E02407F09F
:1013D7009000B5E0FF120E3DF9A3E0FE9000B6E0E5
:1013E700FD75F002A42EF582E435F0F583EF120FB8
:1013F700999000B4E0FCED75F002A4FF9000B3E013
:101407007A002FFFEA35F0CF2401CF3400FE120E09
:101417003DF98F828E83EC120F999000B6E004F0AD
:0314270002139C11
:01142A00229F
:0615E4009000AC120E9312
:1015EA00E49000B2F09000B2120E27506E9000B450
:1015FA00E4F0A304F0E49000B3F09000B3120E27D5
:10160A0050429000B2E075F005A4FF9000AF120EB0
:10161A00402FF9EA35F0FA9000B3E0FF7C0029F98F
:10162A00EC3AFA120F41FE9000AC120E40120F1162
:10163A006E6009E49000B4F0A3F080089000B3E073
:10164A0004F080B69000B3120EB44006EF120E29D1
:10165A0050099000B2E004F00215EF9000B4A3E044
:01166A00FF80
:01166B00225C
:101D08009000ADEDF09000ACEFF0FD7BFF7A11791B
:101D18008A7F77121AE69000ADE09000AC6008E088
:101D280014F0E014F08006E004F0E004F09000AC59
:081D3800120E837F77021AE608
:0D1FAE00EF6005D286C28522C286D2852250
:10166C00E49000ACF0A3F020A4127F0AFE121F0835
:10167C0020A4099000AC7402F030A4FD20A2137FCA
:10168C000A7E00121F0820A2099000AC7403F030EF
:10169C00A2FD20A3467F0A7E00121F0820A33C90C7
:1016AC0000AC7404F020A3337F327E00121F08902C
:1016BC0000ADE004F0E0FF7E00D3940574809480CC
:1016CC0040069000AC7405F0D3EF941EEE64809449
:1016DC008040D29000AC7406F080CA9000ACE0FF61
:0116EC0022DB
:101ED3009000AC7405F09000ACE0FF14F0EF600BE1
:0B1EE300B2877FC87E00121F0880EB52
:011EEE0022D1
:061E50009000AC120E939D
:101E56007F07E4FEEE120E2850159000AC120E40DD
:0F1E6600F98E82120F14F47003AF06220E80E57E
:011E7500224A
:101C0F00121DD97BFF7A117919E4FD7F08121AE6AC
:101C1F00120F1A121AE67BFF7A1179287D04E4FF5E
:101C2F00121AE6120EE4121AE67B017A0079137D7E
:101C3F0006E4FF121AE6120E857D067F77021AE67A
:101D7700121DD97BFF7A117931E4FD7F10121AE623
:101D8700120F1A121AE6120F337D04E4FF121AE635
:101D97007A11793E120F3A121AE6120E857D047FE8
:041DA70077021AE6BF
:10142B00121DD97BFF7A11794EE4FDFF121AE67A71
:10143B001179557D021214BB7A11795C7D0412145B
:10144B00BB7BFF7A1179637D06E4FF121AE6E49009
:10145B0000ACF09000ACE0FF120E285049EF120EDA
:10146B009CE07F0025E0FE121CCC9000ACE0120E3D
:10147B009CC003C002C001120EEF9000B0120E937D
:10148B00E4A3F0D001D002D0031213919000AC1260
:10149B000EEF7B01E025E0FD7F30121AE69000ACE9
:1014AB00E004F002145E120E85E4FD7F77021AE66B
:0814BB007BFFE4FF121AE62298
:101A4000121DD97BFF7A11796AE4FD7F04121AE630
:101A50007BFF7A11797A7D02E4FF121AE67BFF7A26
:101A60001179817D04E4FF121AE690008E120E09AE
:101A70007D027F301214C390009C120E097D047FFA
:101A8000301214C37D06120E62121AE6120E857D04
:061A9000027F77021AE656
:03000B0002198750
:10198700C0E0C083C082C0D075D000C006C0077554
:101997008AA7758CFF900002E004F090008DE0FFAD
:1019A700C39407748094804029D3EF94187480946B
:1019B70080501F900002E0FE9F5004D2848002C234
:1019C70084EEC394C8748094804009900002E4F0C8
:1019D7008002C284D007D006D0D0D082D083D0E096
:0119E70032CD
:03001B000217DFEA
:1017DF00C0E0C0F0C083C082C0D075D000C000C0D0
:1017EF0001C002C003C004C005C006C007758B004E
:1017FF00758DB890009AE004F0E0C3943274809431
:10180F00804022B287E4F0900000E004F0E0D3942F
:10181F000574809480400E900090E06008121FBB0A
:10182F00900090E4F020B00343C760D007D006D0FB
:10183F0005D004D003D002D001D000D0D0D082D0B8
:06184F0083D0F0D0E0326E
:030000000215588E
:0C155800787FE4F6D8FD75810702159F2E
:100F4100BB010689828A83E0225002E722BBFE02AE
:090F5100E32289828A83E49322E1
:100F5A00BB010CE58229F582E5833AF583E022504C
:100F6A0006E92582F8E622BBFE06E92582F8E22296
:0D0F7A00E58229F582E5833AF583E49322B0
:100F8700BB010689828A83F0225002F722BBFE0149
:020F9700F32243
:100F9900F8BB010DE58229F582E5833AF583E8F08E
:100FA900225006E92582C8F622BBFE05E92582C83A
:020FB900F22222
:100FBB00EF8DF0A4A8F0CF8CF0A428CE8DF0A42E4A
:020FCB00FE2204
:100FCD00BC000BBE0029EF8DF084FFADF022E4CC08
:100FDD00F875F008EF2FFFEE33FEEC33FCEE9DECD1
:100FED00984005FCEE9DFE0FD5F0E9E4CEFD22ED17
:100FFD00F8F5F0EE8420D21CFEADF075F008EF2F61
:10100D00FFED33FD4007985006D5F0F222C398FD51
:05101D000FD5F0EA22EE
:10102200BB010A89828A83F0E5F0A3F0225006F719
:0F10320009A7F01922BBFE06F3E5F009F3192216
:10104100EB9FF5F0EA9E42F0E99D42F0E89C45F005
:01105100227C
:0C105200ECF0A3EDF0A3EEF0A3EFF02211
:10105E00A8828583F0D083D082121075121075127B
:10106E001075121075E473E493A3C583C5F0C583A0
:10107E00C8C582C8F0A3C583C5F0C583C8C582C8DC
:01108E00223F
:0C108F00A42582F582E5F03583F583226C
:10156400020003E493A3F8E493A34003F68001F29A
:1015740008DFF48029E493A3F85407240CC8C33388
:10158400C4540F4420C8834004F456800146F6DF57
:10159400E4800B010204081020408090118CE47E4A
:1015A400019360BCA3FF543F30E509541FFEE4934C
:1015B400A360010ECF54C025E060A840B8E493A313
:1015C400FAE493A3F8E493A3C8C582C8CAC583CA3E
:1015D400F0A3C8C582C8CAC583CADFE9DEE780BEF6
:0112470000A6
:00000001FF
